{
  "address": "0x081d797Cef5C376A06AAFBEF554d287b8f91d9A6",
  "abi": [
    {
      "anonymous": false,
      "inputs": [
        {
          "indexed": true,
          "internalType": "bytes12",
          "name": "uniqueIdentifier",
          "type": "bytes12"
        },
        {
          "indexed": true,
          "internalType": "address",
          "name": "registrar",
          "type": "address"
        }
      ],
      "name": "GoldRegistered",
      "type": "event"
    },
    {
      "inputs": [],
      "name": "getAllGoldDetails",
      "outputs": [
        {
          "components": [
            {
              "internalType": "bytes12",
              "name": "uniqueIdentifier",
              "type": "bytes12"
            },
            {
              "internalType": "string",
              "name": "weight",
              "type": "string"
            },
            {
              "internalType": "string",
              "name": "purity",
              "type": "string"
            },
            {
              "internalType": "string",
              "name": "description",
              "type": "string"
            },
            {
              "internalType": "string",
              "name": "certificationDetails",
              "type": "string"
            },
            {
              "internalType": "string",
              "name": "certificationDate",
              "type": "string"
            },
            {
              "internalType": "string",
              "name": "mineLocation",
              "type": "string"
            },
            {
              "internalType": "bytes12",
              "name": "parentGoldId",
              "type": "bytes12"
            },
            {
              "internalType": "bool",
              "name": "hasParentGoldId",
              "type": "bool"
            }
          ],
          "internalType": "struct DiamondLedger.GoldDetails[]",
          "name": "",
          "type": "tuple[]"
        }
      ],
      "stateMutability": "view",
      "type": "function"
    },
    {
      "inputs": [
        {
          "internalType": "bytes12",
          "name": "_uniqueIdentifier",
          "type": "bytes12"
        }
      ],
      "name": "getGoldDetails",
      "outputs": [
        {
          "components": [
            {
              "internalType": "bytes12",
              "name": "uniqueIdentifier",
              "type": "bytes12"
            },
            {
              "internalType": "string",
              "name": "weight",
              "type": "string"
            },
            {
              "internalType": "string",
              "name": "purity",
              "type": "string"
            },
            {
              "internalType": "string",
              "name": "description",
              "type": "string"
            },
            {
              "internalType": "string",
              "name": "certificationDetails",
              "type": "string"
            },
            {
              "internalType": "string",
              "name": "certificationDate",
              "type": "string"
            },
            {
              "internalType": "string",
              "name": "mineLocation",
              "type": "string"
            },
            {
              "internalType": "bytes12",
              "name": "parentGoldId",
              "type": "bytes12"
            },
            {
              "internalType": "bool",
              "name": "hasParentGoldId",
              "type": "bool"
            }
          ],
          "internalType": "struct DiamondLedger.GoldDetails",
          "name": "",
          "type": "tuple"
        }
      ],
      "stateMutability": "view",
      "type": "function"
    },
    {
      "inputs": [
        {
          "internalType": "string",
          "name": "_weight",
          "type": "string"
        },
        {
          "internalType": "string",
          "name": "_purity",
          "type": "string"
        },
        {
          "internalType": "string",
          "name": "_description",
          "type": "string"
        },
        {
          "internalType": "string",
          "name": "_certificationDetails",
          "type": "string"
        },
        {
          "internalType": "string",
          "name": "_certificationDate",
          "type": "string"
        },
        {
          "internalType": "string",
          "name": "_mineLocation",
          "type": "string"
        },
        {
          "internalType": "bytes12",
          "name": "_parentGoldId",
          "type": "bytes12"
        }
      ],
      "name": "registerGold",
      "outputs": [
        {
          "internalType": "bytes12",
          "name": "",
          "type": "bytes12"
        }
      ],
      "stateMutability": "nonpayable",
      "type": "function"
    },
    {
      "inputs": [],
      "name": "totalRegistrations",
      "outputs": [
        {
          "internalType": "uint256",
          "name": "",
          "type": "uint256"
        }
      ],
      "stateMutability": "view",
      "type": "function"
    }
  ],
  "transactionHash": "0x836c444ac33751d87e5b4a08050c84f717ea19a5a8ab173194a01807a8696a8c",
  "args": [],
  "numDeployments": 1,
  "solcInputHash": "75a9958cd4a18979c1a5e4d2acfcf08e",
  "bytecode": "0x60808060405234610016576110eb908161001c8239f35b600080fdfe608080604052600436101561001357600080fd5b60003560e01c908163040fe47d1461031a575080630c8e86b014610163578063f4f62b6d146101455763fad19d6e1461004b57600080fd5b34610140576020366003190112610140576004356001600160601b0360a01b8082168092036101405761013c91610080610fa0565b50600052600060205260ff6040600020916007604051936100a085610e8e565b82815460a01b1685526100b560018201610fe4565b60208601526100c660028201610fe4565b60408601526100d760038201610fe4565b60608601526100e860048201610fe4565b60808601526100f960058201610fe4565b60a086015261010a60068201610fe4565b60c08601520154908160a01b1660e084015260601c161515610100820152604051918291602083526020830190610db9565b0390f35b600080fd5b34610140576000366003190112610140576020600254604051908152f35b3461014057600036600319011261014057600180546101818161108a565b9061018f6040519283610eaa565b808252601f1961019e8261108a565b0160005b81811061030357505060005b818110610218578284604051906020808301818452845180915260408401918060408360051b8701019601926000905b8382106101eb5786880387f35b90919293948380610207839a603f198b82030186528951610db9565b9997019594939190910191016101de565b808460ff6102286102fe94610f4b565b906001600160601b0360a01b9054908060039260a094841b1c841b16600052600761029460209360008552604060002094610278604051996102698b610e8e565b8688548a1b168b528701610fe4565b9089015261028860028601610fe4565b60408901528401610fe4565b92606093848801526102a860048201610fe4565b60808801526102b960058201610fe4565b858801526102c960068201610fe4565b60c0880152015480931b1660e08501521c1615156101008201526102ed82866110a1565b526102f881856110a1565b50610e69565b6101ae565b60209061030e610fa0565b828287010152016101a2565b346101405760e0366003190112610140576004356001600160401b0381116101405761034a903690600401610d4c565b90916024356001600160401b0381116101405761036b903690600401610d4c565b906044356001600160401b0381116101405761038b903690600401610d4c565b906064356001600160401b038111610140576103ab903690600401610d4c565b90916084356001600160401b038111610140576103cc903690600401610d4c565b94909560a4356001600160401b038111610140576103ee903690600401610d4c565b9890996001600160601b0360a01b60c4351660c43503610140578b15610d1157508015610cd35760549b610423600254610e69565b806002556040519d8e4260208201523360601b6040820152015260548d528c6001600160401b036080828181011092011117610835578c9b60808d016040528c805190602001209d8e6080820161047990610e8e565b6001600160601b0360a01b169060800152369061049592610ecb565b60a08c015236906104a592610ecb565b60c08a015236906104b592610ecb565b60e088015236906104c592610ecb565b61010086015236906104d692610ecb565b61012084015236906104e792610ecb565b61014082015260c4356001600160a01b03199081166101608301819052151561018083015282166000908152602081905260409020608082015181546bffffffffffffffffffffffff191660a091821c17825582015180519093906001600160401b0381116108355761055d6001840154610f11565b601f8111610c8c575b506020601f8211600114610c1d578192939495600092610c12575b50508160011b916000199060031b1c19161760018301555b60c08301519283516001600160401b038111610835576105bc6002850154610f11565b601f8111610bcb575b506020601f8211600114610b5c578192939495600092610b51575b50508160011b916000199060031b1c19161760028401555b60e08101519283516001600160401b0381116108355761061b6003830154610f11565b601f8111610b0a575b506020601f8211600114610a9b578192939495600092610a90575b50508160011b916000199060031b1c19161760038201555b6101008201519283516001600160401b0381116108355761067b6004840154610f11565b601f8111610a49575b506020601f82116001146109da5781929394956000926109cf575b50508160011b916000199060031b1c19161760048301555b6101208301519283516001600160401b038111610835576106db6005850154610f11565b601f8111610988575b506020601f821160011461091957819293949560009261090e575b50508160011b916000199060031b1c19161760058401555b6101408101519283516001600160401b0381116108355761073b6006830154610f11565b601f81116108c7575b506020601f8211600114610856578190600794959660009261084b575b50508160011b916000199060031b1c19161760068201555b019061016081015160a01c82549161018060ff60601b910151151560601b16916cffffffffffffffffffffffffff1916171790556001549068010000000000000000821015610835576107d482600160209401600155610f4b565b81549060031b906001600160601b038460a01c831b921b191617905560405190336001600160601b0360a01b82167f2664e5703d808859d3d905e8037f8d484caf86df4a8418b8a39056fd4a9385ca600080a36001600160a01b0319168152f35b634e487b7160e01b600052604160045260246000fd5b015190508680610761565b601f198216956006840160005260206000209660005b8181106108af575091600795969791846001959410610896575b505050811b016006820155610779565b015160001960f88460031b161c19169055868080610886565b8383015189556001909801976020938401930161086c565b600683016000526020600020601f830160051c810160208410610907575b601f830160051c820181106108fb575050610744565b600081556001016108e5565b50806108e5565b0151905085806106ff565b6005850160005260206000209060005b601f1984168110610970575060019394959683601f19811610610957575b505050811b016005840155610717565b015160001960f88460031b161c19169055858080610947565b9091602060018192858b015181550193019101610929565b600585016000526020600020601f830160051c8101602084106109c8575b601f830160051c820181106109bc5750506106e4565b600081556001016109a6565b50806109a6565b01519050858061069f565b6004840160005260206000209060005b601f1984168110610a31575060019394959683601f19811610610a18575b505050811b0160048301556106b7565b015160001960f88460031b161c19169055858080610a08565b9091602060018192858b0151815501930191016109ea565b600484016000526020600020601f830160051c810160208410610a89575b601f830160051c82018110610a7d575050610684565b60008155600101610a67565b5080610a67565b01519050858061063f565b6003830160005260206000209060005b601f1984168110610af2575060019394959683601f19811610610ad9575b505050811b016003820155610657565b015160001960f88460031b161c19169055858080610ac9565b9091602060018192858b015181550193019101610aab565b600383016000526020600020601f830160051c810160208410610b4a575b601f830160051c82018110610b3e575050610624565b60008155600101610b28565b5080610b28565b0151905085806105e0565b6002850160005260206000209060005b601f1984168110610bb3575060019394959683601f19811610610b9a575b505050811b0160028401556105f8565b015160001960f88460031b161c19169055858080610b8a565b9091602060018192858b015181550193019101610b6c565b600285016000526020600020601f830160051c810160208410610c0b575b601f830160051c82018110610bff5750506105c5565b60008155600101610be9565b5080610be9565b015190508580610581565b6001840160005260206000209060005b601f1984168110610c74575060019394959683601f19811610610c5b575b505050811b016001830155610599565b015160001960f88460031b161c19169055858080610c4b565b9091602060018192858b015181550193019101610c2d565b600184016000526020600020601f830160051c810160208410610ccc575b601f830160051c82018110610cc0575050610566565b60008155600101610caa565b5080610caa565b60405162461bcd60e51b81526020600482015260166024820152755075726974792063616e6e6f7420626520656d70747960501b6044820152606490fd5b62461bcd60e51b81526020600482015260166024820152755765696768742063616e6e6f7420626520656d70747960501b6044820152606490fd5b9181601f84011215610140578235916001600160401b038311610140576020838186019501011161014057565b919082519283825260005b848110610da5575050826000602080949584010152601f8019910116010190565b602081830181015184830182015201610d84565b906001600160601b0360a01b91828151168252610e4e610e3c610e2a610e18610e06610df460208701516101208060208b0152890190610d79565b604087015188820360408a0152610d79565b60608601518782036060890152610d79565b60808501518682036080880152610d79565b60a084015185820360a0870152610d79565b60c083015184820360c0860152610d79565b9260e08201511660e083015261010080910151151591015290565b6000198114610e785760010190565b634e487b7160e01b600052601160045260246000fd5b61012081019081106001600160401b0382111761083557604052565b90601f801991011681019081106001600160401b0382111761083557604052565b9291926001600160401b0382116108355760405191610ef4601f8201601f191660200184610eaa565b829481845281830111610140578281602093846000960137010152565b90600182811c92168015610f41575b6020831014610f2b57565b634e487b7160e01b600052602260045260246000fd5b91607f1691610f20565b90600154821015610f8a576001600052600c600183811c7fb10e2d527612073b26eecdfd717e6a320cf44b4afac2b0732d9fcbe2b7fa0cf60193160290565b634e487b7160e01b600052603260045260246000fd5b60405190610fad82610e8e565b600061010083828152606080602083015280604083015280808301528060808301528060a083015260c08201528260e08201520152565b9060405191826000825492610ff884610f11565b9081845260019485811690816000146110675750600114611024575b505061102292500383610eaa565b565b9093915060005260209081600020936000915b81831061104f57505061102293508201013880611014565b85548884018501529485019487945091830191611037565b91505061102294506020925060ff191682840152151560051b8201013880611014565b6001600160401b0381116108355760051b60200190565b8051821015610f8a5760209160051b01019056fea264697066735822122075069af7672cc4b89b1e6685240c930d80396d566417f401edd8128dc37996b964736f6c63430008140033",
  "devdoc": {
    "kind": "dev",
    "methods": {},
    "version": 1
  },
  "userdoc": {
    "kind": "user",
    "methods": {},
    "version": 1
  },
  "storageLayout": {
    "storage": [
      {
        "astId": 25,
        "contract": "contracts/YourContract.sol:DiamondLedger",
        "label": "diamondRegistry",
        "offset": 0,
        "slot": "0",
        "type": "t_mapping(t_bytes12,t_struct(GoldDetails)20_storage)"
      },
      {
        "astId": 28,
        "contract": "contracts/YourContract.sol:DiamondLedger",
        "label": "goldIdentifiers",
        "offset": 0,
        "slot": "1",
        "type": "t_array(t_bytes12)dyn_storage"
      },
      {
        "astId": 30,
        "contract": "contracts/YourContract.sol:DiamondLedger",
        "label": "totalRegistrations",
        "offset": 0,
        "slot": "2",
        "type": "t_uint256"
      }
    ],
    "types": {
      "t_array(t_bytes12)dyn_storage": {
        "base": "t_bytes12",
        "encoding": "dynamic_array",
        "label": "bytes12[]",
        "numberOfBytes": "32"
      },
      "t_bool": {
        "encoding": "inplace",
        "label": "bool",
        "numberOfBytes": "1"
      },
      "t_bytes12": {
        "encoding": "inplace",
        "label": "bytes12",
        "numberOfBytes": "12"
      },
      "t_mapping(t_bytes12,t_struct(GoldDetails)20_storage)": {
        "encoding": "mapping",
        "key": "t_bytes12",
        "label": "mapping(bytes12 => struct DiamondLedger.GoldDetails)",
        "numberOfBytes": "32",
        "value": "t_struct(GoldDetails)20_storage"
      },
      "t_string_storage": {
        "encoding": "bytes",
        "label": "string",
        "numberOfBytes": "32"
      },
      "t_struct(GoldDetails)20_storage": {
        "encoding": "inplace",
        "label": "struct DiamondLedger.GoldDetails",
        "members": [
          {
            "astId": 3,
            "contract": "contracts/YourContract.sol:DiamondLedger",
            "label": "uniqueIdentifier",
            "offset": 0,
            "slot": "0",
            "type": "t_bytes12"
          },
          {
            "astId": 5,
            "contract": "contracts/YourContract.sol:DiamondLedger",
            "label": "weight",
            "offset": 0,
            "slot": "1",
            "type": "t_string_storage"
          },
          {
            "astId": 7,
            "contract": "contracts/YourContract.sol:DiamondLedger",
            "label": "purity",
            "offset": 0,
            "slot": "2",
            "type": "t_string_storage"
          },
          {
            "astId": 9,
            "contract": "contracts/YourContract.sol:DiamondLedger",
            "label": "description",
            "offset": 0,
            "slot": "3",
            "type": "t_string_storage"
          },
          {
            "astId": 11,
            "contract": "contracts/YourContract.sol:DiamondLedger",
            "label": "certificationDetails",
            "offset": 0,
            "slot": "4",
            "type": "t_string_storage"
          },
          {
            "astId": 13,
            "contract": "contracts/YourContract.sol:DiamondLedger",
            "label": "certificationDate",
            "offset": 0,
            "slot": "5",
            "type": "t_string_storage"
          },
          {
            "astId": 15,
            "contract": "contracts/YourContract.sol:DiamondLedger",
            "label": "mineLocation",
            "offset": 0,
            "slot": "6",
            "type": "t_string_storage"
          },
          {
            "astId": 17,
            "contract": "contracts/YourContract.sol:DiamondLedger",
            "label": "parentGoldId",
            "offset": 0,
            "slot": "7",
            "type": "t_bytes12"
          },
          {
            "astId": 19,
            "contract": "contracts/YourContract.sol:DiamondLedger",
            "label": "hasParentGoldId",
            "offset": 12,
            "slot": "7",
            "type": "t_bool"
          }
        ],
        "numberOfBytes": "256"
      },
      "t_uint256": {
        "encoding": "inplace",
        "label": "uint256",
        "numberOfBytes": "32"
      }
    }
  }
}