{
  "address": "0xc2591EcC12DB13eef1191459A00e14f6f9850345",
  "abi": [
    {
      "anonymous": false,
      "inputs": [
        {
          "indexed": true,
          "internalType": "uint256",
          "name": "uniqueIdentifier",
          "type": "uint256"
        },
        {
          "indexed": true,
          "internalType": "address",
          "name": "registrar",
          "type": "address"
        }
      ],
      "name": "GoldRegistered",
      "type": "event"
    },
    {
      "inputs": [
        {
          "internalType": "uint256",
          "name": "_uniqueIdentifier",
          "type": "uint256"
        }
      ],
      "name": "getGoldDetails",
      "outputs": [
        {
          "components": [
            {
              "internalType": "string",
              "name": "weight",
              "type": "string"
            },
            {
              "internalType": "string",
              "name": "purity",
              "type": "string"
            },
            {
              "internalType": "string",
              "name": "description",
              "type": "string"
            },
            {
              "internalType": "string",
              "name": "certificationDetails",
              "type": "string"
            },
            {
              "internalType": "string",
              "name": "certificationDate",
              "type": "string"
            },
            {
              "internalType": "string",
              "name": "mineLocation",
              "type": "string"
            },
            {
              "internalType": "string",
              "name": "parentGoldId",
              "type": "string"
            },
            {
              "internalType": "uint256",
              "name": "uniqueIdentifier",
              "type": "uint256"
            }
          ],
          "internalType": "struct GoldLedger.GoldDetails",
          "name": "",
          "type": "tuple"
        }
      ],
      "stateMutability": "view",
      "type": "function"
    },
    {
      "inputs": [
        {
          "internalType": "uint256",
          "name": "",
          "type": "uint256"
        }
      ],
      "name": "goldRegistry",
      "outputs": [
        {
          "internalType": "string",
          "name": "weight",
          "type": "string"
        },
        {
          "internalType": "string",
          "name": "purity",
          "type": "string"
        },
        {
          "internalType": "string",
          "name": "description",
          "type": "string"
        },
        {
          "internalType": "string",
          "name": "certificationDetails",
          "type": "string"
        },
        {
          "internalType": "string",
          "name": "certificationDate",
          "type": "string"
        },
        {
          "internalType": "string",
          "name": "mineLocation",
          "type": "string"
        },
        {
          "internalType": "string",
          "name": "parentGoldId",
          "type": "string"
        },
        {
          "internalType": "uint256",
          "name": "uniqueIdentifier",
          "type": "uint256"
        }
      ],
      "stateMutability": "view",
      "type": "function"
    },
    {
      "inputs": [
        {
          "internalType": "string",
          "name": "_weight",
          "type": "string"
        },
        {
          "internalType": "string",
          "name": "_purity",
          "type": "string"
        },
        {
          "internalType": "string",
          "name": "_description",
          "type": "string"
        },
        {
          "internalType": "string",
          "name": "_certificationDetails",
          "type": "string"
        },
        {
          "internalType": "string",
          "name": "_certificationDate",
          "type": "string"
        },
        {
          "internalType": "string",
          "name": "_mineLocation",
          "type": "string"
        },
        {
          "internalType": "string",
          "name": "_parentGoldId",
          "type": "string"
        }
      ],
      "name": "registerGold",
      "outputs": [
        {
          "internalType": "uint256",
          "name": "",
          "type": "uint256"
        }
      ],
      "stateMutability": "nonpayable",
      "type": "function"
    },
    {
      "inputs": [],
      "name": "totalRegistrations",
      "outputs": [
        {
          "internalType": "uint256",
          "name": "",
          "type": "uint256"
        }
      ],
      "stateMutability": "view",
      "type": "function"
    }
  ],
  "transactionHash": "0x52d8f4f9d22880fa7921e69028e25bb5299c333d4571b7a85a296f3b490df9c0",
  "args": [],
  "numDeployments": 1,
  "solcInputHash": "722a68fff7993377a30d065c4888c21c",
  "bytecode": "0x608060405234801561001057600080fd5b506110a2806100206000396000f3fe608060405234801561001057600080fd5b506004361061004b5760003560e01c8062dd9c2f146100505780636608dc0a14610076578063cf8014eb1461009d578063f4f62b6d146100bd575b600080fd5b61006361005e366004610bd8565b6100c6565b6040519081526020015b60405180910390f35b610089610084366004610cf3565b61020e565b60405161006d989796959493929190610d52565b6100b06100ab366004610cf3565b610606565b60405161006d9190610df4565b61006360015481565b60018054600091826100d783610eda565b919050555060006100e6610acb565b90506040518061010001604052808a81526020018981526020018881526020018781526020018681526020018581526020018481526020018281525060008083815260200190815260200160002060008201518160000190816101499190610f8a565b506020820151600182019061015e9082610f8a565b50604082015160028201906101739082610f8a565b50606082015160038201906101889082610f8a565b506080820151600482019061019d9082610f8a565b5060a082015160058201906101b29082610f8a565b5060c082015160068201906101c79082610f8a565b5060e09190910151600790910155604051339082907f234c97d293b0a8a38db676f2ec179a204c9096f81f99a1ca9700fc2099378f4690600090a398975050505050505050565b60006020819052908152604090208054819061022990610f01565b80601f016020809104026020016040519081016040528092919081815260200182805461025590610f01565b80156102a25780601f10610277576101008083540402835291602001916102a2565b820191906000526020600020905b81548152906001019060200180831161028557829003601f168201915b5050505050908060010180546102b790610f01565b80601f01602080910402602001604051908101604052809291908181526020018280546102e390610f01565b80156103305780601f1061030557610100808354040283529160200191610330565b820191906000526020600020905b81548152906001019060200180831161031357829003601f168201915b50505050509080600201805461034590610f01565b80601f016020809104026020016040519081016040528092919081815260200182805461037190610f01565b80156103be5780601f10610393576101008083540402835291602001916103be565b820191906000526020600020905b8154815290600101906020018083116103a157829003601f168201915b5050505050908060030180546103d390610f01565b80601f01602080910402602001604051908101604052809291908181526020018280546103ff90610f01565b801561044c5780601f106104215761010080835404028352916020019161044c565b820191906000526020600020905b81548152906001019060200180831161042f57829003601f168201915b50505050509080600401805461046190610f01565b80601f016020809104026020016040519081016040528092919081815260200182805461048d90610f01565b80156104da5780601f106104af576101008083540402835291602001916104da565b820191906000526020600020905b8154815290600101906020018083116104bd57829003601f168201915b5050505050908060050180546104ef90610f01565b80601f016020809104026020016040519081016040528092919081815260200182805461051b90610f01565b80156105685780601f1061053d57610100808354040283529160200191610568565b820191906000526020600020905b81548152906001019060200180831161054b57829003601f168201915b50505050509080600601805461057d90610f01565b80601f01602080910402602001604051908101604052809291908181526020018280546105a990610f01565b80156105f65780601f106105cb576101008083540402835291602001916105f6565b820191906000526020600020905b8154815290600101906020018083116105d957829003601f168201915b5050505050908060070154905088565b61064e60405180610100016040528060608152602001606081526020016060815260200160608152602001606081526020016060815260200160608152602001600081525090565b60008281526020819052604081206007015490036106a35760405162461bcd60e51b815260206004820152600e60248201526d11dbdb19081b9bdd08199bdd5b9960921b604482015260640160405180910390fd5b60008281526020819052604090819020815161010081019092528054829082906106cc90610f01565b80601f01602080910402602001604051908101604052809291908181526020018280546106f890610f01565b80156107455780601f1061071a57610100808354040283529160200191610745565b820191906000526020600020905b81548152906001019060200180831161072857829003601f168201915b5050505050815260200160018201805461075e90610f01565b80601f016020809104026020016040519081016040528092919081815260200182805461078a90610f01565b80156107d75780601f106107ac576101008083540402835291602001916107d7565b820191906000526020600020905b8154815290600101906020018083116107ba57829003601f168201915b505050505081526020016002820180546107f090610f01565b80601f016020809104026020016040519081016040528092919081815260200182805461081c90610f01565b80156108695780601f1061083e57610100808354040283529160200191610869565b820191906000526020600020905b81548152906001019060200180831161084c57829003601f168201915b5050505050815260200160038201805461088290610f01565b80601f01602080910402602001604051908101604052809291908181526020018280546108ae90610f01565b80156108fb5780601f106108d0576101008083540402835291602001916108fb565b820191906000526020600020905b8154815290600101906020018083116108de57829003601f168201915b5050505050815260200160048201805461091490610f01565b80601f016020809104026020016040519081016040528092919081815260200182805461094090610f01565b801561098d5780601f106109625761010080835404028352916020019161098d565b820191906000526020600020905b81548152906001019060200180831161097057829003601f168201915b505050505081526020016005820180546109a690610f01565b80601f01602080910402602001604051908101604052809291908181526020018280546109d290610f01565b8015610a1f5780601f106109f457610100808354040283529160200191610a1f565b820191906000526020600020905b815481529060010190602001808311610a0257829003601f168201915b50505050508152602001600682018054610a3890610f01565b80601f0160208091040260200160405190810160405280929190818152602001828054610a6490610f01565b8015610ab15780601f10610a8657610100808354040283529160200191610ab1565b820191906000526020600020905b815481529060010190602001808311610a9457829003601f168201915b505050505081526020016007820154815250509050919050565b600064e8d4a510004233600154604051602001610b0d9392919092835260609190911b6bffffffffffffffffffffffff19166020830152603482015260540190565b6040516020818303038152906040528051906020012060001c610b30919061104a565b905090565b634e487b7160e01b600052604160045260246000fd5b600082601f830112610b5c57600080fd5b813567ffffffffffffffff80821115610b7757610b77610b35565b604051601f8301601f19908116603f01168101908282118183101715610b9f57610b9f610b35565b81604052838152866020858801011115610bb857600080fd5b836020870160208301376000602085830101528094505050505092915050565b600080600080600080600060e0888a031215610bf357600080fd5b873567ffffffffffffffff80821115610c0b57600080fd5b610c178b838c01610b4b565b985060208a0135915080821115610c2d57600080fd5b610c398b838c01610b4b565b975060408a0135915080821115610c4f57600080fd5b610c5b8b838c01610b4b565b965060608a0135915080821115610c7157600080fd5b610c7d8b838c01610b4b565b955060808a0135915080821115610c9357600080fd5b610c9f8b838c01610b4b565b945060a08a0135915080821115610cb557600080fd5b610cc18b838c01610b4b565b935060c08a0135915080821115610cd757600080fd5b50610ce48a828b01610b4b565b91505092959891949750929550565b600060208284031215610d0557600080fd5b5035919050565b6000815180845260005b81811015610d3257602081850181015186830182015201610d16565b506000602082860101526020601f19601f83011685010191505092915050565b6000610100808352610d668184018c610d0c565b90508281036020840152610d7a818b610d0c565b90508281036040840152610d8e818a610d0c565b90508281036060840152610da28189610d0c565b90508281036080840152610db68188610d0c565b905082810360a0840152610dca8187610d0c565b905082810360c0840152610dde8186610d0c565b9150508260e08301529998505050505050505050565b6020815260008251610100806020850152610e13610120850183610d0c565b91506020850151601f1980868503016040870152610e318483610d0c565b93506040870151915080868503016060870152610e4e8483610d0c565b93506060870151915080868503016080870152610e6b8483610d0c565b935060808701519150808685030160a0870152610e888483610d0c565b935060a08701519150808685030160c0870152610ea58483610d0c565b935060c08701519150808685030160e087015250610ec38382610d0c565b92505060e085015181850152508091505092915050565b600060018201610efa57634e487b7160e01b600052601160045260246000fd5b5060010190565b600181811c90821680610f1557607f821691505b602082108103610f3557634e487b7160e01b600052602260045260246000fd5b50919050565b601f821115610f8557600081815260208120601f850160051c81016020861015610f625750805b601f850160051c820191505b81811015610f8157828155600101610f6e565b5050505b505050565b815167ffffffffffffffff811115610fa457610fa4610b35565b610fb881610fb28454610f01565b84610f3b565b602080601f831160018114610fed5760008415610fd55750858301515b600019600386901b1c1916600185901b178555610f81565b600085815260208120601f198616915b8281101561101c57888601518255948401946001909101908401610ffd565b508582101561103a5787850151600019600388901b60f8161c191681555b5050505050600190811b01905550565b60008261106757634e487b7160e01b600052601260045260246000fd5b50069056fea26469706673582212207fbd6e2728e38b5a902bb5fe2abb0d2c145c02ca19ace47d130ce7fa33dba13964736f6c63430008140033",
  "devdoc": {
    "kind": "dev",
    "methods": {},
    "version": 1
  },
  "userdoc": {
    "kind": "user",
    "methods": {},
    "version": 1
  },
  "storageLayout": {
    "storage": [
      {
        "astId": 24,
        "contract": "contracts/YourContract.sol:GoldLedger",
        "label": "goldRegistry",
        "offset": 0,
        "slot": "0",
        "type": "t_mapping(t_uint256,t_struct(GoldDetails)19_storage)"
      },
      {
        "astId": 26,
        "contract": "contracts/YourContract.sol:GoldLedger",
        "label": "totalRegistrations",
        "offset": 0,
        "slot": "1",
        "type": "t_uint256"
      }
    ],
    "types": {
      "t_mapping(t_uint256,t_struct(GoldDetails)19_storage)": {
        "encoding": "mapping",
        "key": "t_uint256",
        "label": "mapping(uint256 => struct GoldLedger.GoldDetails)",
        "numberOfBytes": "32",
        "value": "t_struct(GoldDetails)19_storage"
      },
      "t_string_storage": {
        "encoding": "bytes",
        "label": "string",
        "numberOfBytes": "32"
      },
      "t_struct(GoldDetails)19_storage": {
        "encoding": "inplace",
        "label": "struct GoldLedger.GoldDetails",
        "members": [
          {
            "astId": 4,
            "contract": "contracts/YourContract.sol:GoldLedger",
            "label": "weight",
            "offset": 0,
            "slot": "0",
            "type": "t_string_storage"
          },
          {
            "astId": 6,
            "contract": "contracts/YourContract.sol:GoldLedger",
            "label": "purity",
            "offset": 0,
            "slot": "1",
            "type": "t_string_storage"
          },
          {
            "astId": 8,
            "contract": "contracts/YourContract.sol:GoldLedger",
            "label": "description",
            "offset": 0,
            "slot": "2",
            "type": "t_string_storage"
          },
          {
            "astId": 10,
            "contract": "contracts/YourContract.sol:GoldLedger",
            "label": "certificationDetails",
            "offset": 0,
            "slot": "3",
            "type": "t_string_storage"
          },
          {
            "astId": 12,
            "contract": "contracts/YourContract.sol:GoldLedger",
            "label": "certificationDate",
            "offset": 0,
            "slot": "4",
            "type": "t_string_storage"
          },
          {
            "astId": 14,
            "contract": "contracts/YourContract.sol:GoldLedger",
            "label": "mineLocation",
            "offset": 0,
            "slot": "5",
            "type": "t_string_storage"
          },
          {
            "astId": 16,
            "contract": "contracts/YourContract.sol:GoldLedger",
            "label": "parentGoldId",
            "offset": 0,
            "slot": "6",
            "type": "t_string_storage"
          },
          {
            "astId": 18,
            "contract": "contracts/YourContract.sol:GoldLedger",
            "label": "uniqueIdentifier",
            "offset": 0,
            "slot": "7",
            "type": "t_uint256"
          }
        ],
        "numberOfBytes": "256"
      },
      "t_uint256": {
        "encoding": "inplace",
        "label": "uint256",
        "numberOfBytes": "32"
      }
    }
  }
}